:100000000C94A7000C94C4000C94C4000C94C4007D
:100010000C94C4000C94C4000C94C4000C944305CC
:100020000C946C050C941A050C94C4000C94C40038
:100030000C94C4000C94C4000C94C4000C94C40030
:100040000C94C4000C94C4000C94C4000C94C40020
:100050000C94C40000407A10F35A00A0724E1809A4
:100060000010A5D4E80000E87648170000E40B541F
:10007000020000CA9A3B000000E1F50500008096EE
:100080009800000040420F000000A0860100000020
:10009000102700000000E8030000000064000000DA
:1000A00000000A00000000000100000000002C76A3
:1000B000D888DC674F0823DFC1DFAE59E1B1B796BE
:1000C000E5E3E453C63AE651997696E8E6C284261B
:1000D000EB898C9B62ED407C6FFCEFBC9C9F40F2F7
:1000E000BAA56FA5F490055A2AF75C936B6CF96773
:1000F0006DC11BFCE0E40D47FEF520E6B500D0ED38
:10010000902E0300943577050080841E080000209F
:100110004E0A000000C80C333333330F986E12833D
:100120001141EF8D2114893BE65516CFFEE6DB1811
:10013000D1844B381BF77C1D901DA4BBE4242032D6
:1001400084725E228100C9F124ECA1E53D271124CF
:100150001FBECFE5D8E0DEBFCDBF10E0A0E6B0E027
:10016000ECEDF1E102C005900D92AC3EB107D9F77C
:1001700010E0ACEEB0E001C01D92A93FB107E1F77D
:100180000E94E3010C94EC080C9400000E94CB0543
:100190008F30E1F70E94CB05823211F080E00895A4
:1001A00082E208950E94CB058F30E1F78091EC0048
:1001B0000E94C7058091ED000E94C7058091EE0066
:1001C0000E94C7058091EF000E94C7058091F00052
:1001D0000E94C70508950E94CB058F30E1F788EF94
:1001E0000E94C7050E94CB05883F11F080E008956A
:1001F00088EF08950E94CB058F30E1F781E10E94DE
:10020000C7058091EC000E94C7058091ED000E9417
:10021000C7058091EE000E94C7058091EF000E9403
:10022000C7058091F0000E94C7058091F1000E94EF
:10023000C7058091F2000E94C7058091F3000E94DB
:10024000C7058091F4000E94C7058091F5000E94C7
:10025000C70508950F931F93CF93DF930E949304D4
:1002600080E690E00E94130481E060E00E94970421
:10027000CCEED0E008EC10E00E944C03888380EACA
:100280009FE0F8013197F1F70197D9F7219680E0C7
:10029000C13FD80789F70E944C038D30E1F7DF9109
:1002A000CF911F910F91089581E790E00E94130470
:1002B00081E060E00E9497048FE790E00E941304C1
:1002C0000E944C038B32F1F70E942A010E94D20057
:1002D000FBCF0F931F93CF93DF930E9493048FE87C
:1002E00090E00E94130481E060E00E949704CCEE4D
:1002F000D0E008EC10E00E944C03888380EA9FE085
:10030000F8013197F1F70197D9F78AE20E94E803E3
:10031000219680E0C13FD80771F70E944C038D30D1
:10032000E1F780ED97E028EC30E0F9013197F1F743
:100330000197D9F70E94930481EA90E00E94130488
:1003400081E060E00E94970482EB90E00E94130439
:10035000C1EFD0E008EC10E00E944C03888380EAF3
:100360009FE0F8013197F1F70197D9F78AE20E94EF
:10037000E803219680E0C63FD80771F70E944C033E
:100380008D30E1F70E949304DF91CF911F910F917F
:1003900008951F9311E011C00E9469010E94FA00A4
:1003A0000E94C600823229F41093F6008EEB90E092
:1003B00002C089EC90E00E9413048091F60088232B
:1003C00059F31F910895DF93CF93CDB7DEB72797E9
:1003D0000FB6F894DEBF0FBECDBF0E94B504DE019C
:1003E0001196E5EEF0E087E001900D928150E1F783
:1003F000CE0101960E9495058FB780688FBF0E943D
:10040000EB00883F19F00E94C901F9CF8AED90E016
:100410000E941304F4CF683008F070C0843008F0F4
:100420006DC0813009F1813030F08230B1F183301C
:1004300009F064C04BC0413059F42AB381E090E028
:1004400002C0880F991F6A95E2F7282B2ABB0895EE
:100450002AB381E090E002C0880F991F6A95E2F705
:10046000809582238ABB0895413059F427B381E0F7
:1004700090E002C0880F991F6A95E2F7282B27BBEE
:10048000089527B381E090E002C0880F991F6A9514
:10049000E2F78095822387BB0895413059F424B355
:1004A00081E090E002C0880F991F6A95E2F7282B3F
:1004B00024BB089524B381E090E002C0880F991F07
:1004C0006A95E2F78095822384BB0895413059F400
:1004D00021B381E090E002C0880F991F6A95E2F78E
:1004E000282B21BB089521B381E090E002C0880F42
:1004F000991F6A95E2F78095822381BB0895683041
:1005000008F070C0843008F06DC0813009F181308E
:1005100030F08230B1F1833009F064C04BC041301B
:1005200059F42BB381E090E002C0880F991F6A95BF
:10053000E2F7282B2BBB08952BB381E090E002C09B
:10054000880F991F6A95E2F7809582238BBB0895E7
:10055000413059F428B381E090E002C0880F991F20
:100560006A95E2F7282B28BB089528B381E090E034
:1005700002C0880F991F6A95E2F78095822388BB95
:100580000895413059F425B381E090E002C0880F0E
:10059000991F6A95E2F7282B25BB089525B381E0C2
:1005A00090E002C0880F991F6A95E2F78095822338
:1005B00085BB0895413059F422B381E090E002C038
:1005C000880F991F6A95E2F7282B22BB089522B362
:1005D00081E090E002C0880F991F6A95E2F780954C
:1005E000822382BB08956830D0F48430C0F4813017
:1005F00049F0813028F0823039F0833081F406C030
:1006000089B305C086B303C083B301C080B390E053
:1006100002C0959587956A95E2F78170089580E00C
:100620000895843080F4813049F0813028F08230A0
:1006300039F0833041F406C06ABB089567BB089562
:1006400064BB089561BB0895843080F4813049F023
:10065000813028F0823039F0833041F406C06BBB22
:10066000089568BB089565BB089562BB0895843002
:1006700088F4813049F0813028F0823039F08330BD
:1006800049F406C089B3089586B3089583B30895E5
:1006900080B3089580E00895FF920F931F93CF9346
:1006A000DF9382E060E040E00E940B0282E061E0C4
:1006B00040E00E940B0282E062E040E00E940B02F8
:1006C00082E063E040E00E940B0214E082E0612FD0
:1006D00040E00E940B021F5F1830C1F7FF2400E0CA
:1006E000C0E1D7E201C0F02E82E06F2D41E00E9410
:1006F0000B0282E06F2D40E00E947F0210E01C5F41
:1007000082E0612F0E94F302612F6350882309F079
:100710004BC0802F880F880F860F883081F1893079
:1007200080F4843021F1853038F48230E1F0833078
:10073000E0F4813099F515C08630E9F08730E8F4AF
:1007400018C08C3021F18D3028F48A30E1F08B30E4
:10075000E0F417C08F30F9F08031F9F08E30F1F409
:1007600018C087E01BC088E019C089E017C085E287
:1007700015C084E013C085E011C086E00FC08AE296
:100780000DC081E00BC082E009C083E007C08DE2AC
:1007900005C080E003C08DE301C08BE2DF91CF9103
:1007A0001F910F91FF900895162F643009F0A7CF85
:1007B00082E06F2D40E00E940B02CE010197F1F71D
:1007C0000F2D0F5F043008F48ECFFF2400E08CCF94
:1007D000EF92FF921F93182F81E060E041E00E94AA
:1007E0007F0280EDE82E87E0F82EC7010197F1F730
:1007F00081E061E041E00E947F02C7010197F1F7CB
:1008000080E0612F0E94240312E0812F8A95F1F786
:1008100081E061E040E00E947F021A95F1F71F91AC
:10082000FF90EF900895CF93DF93EC0102C00E94F8
:10083000E80389918823D9F7DF91CF910895EF924A
:10084000FF920F931F93DF93CF93CDB7DEB76497DB
:100850000FB6F894DEBF0FBECDBF45E023E07E01AA
:100860000894E11CF11C87010E941506C7010E9433
:10087000130464960FB6F894DEBF0FBECDBFCF91C0
:10088000DF911F910F91FF90EF9008950F931F93A9
:10089000DF93CF93CDB7DEB72A970FB6F894DEBFBC
:1008A0000FBECDBF8E010F5F1F4FB8014AE050E071
:1008B0000E943606C8010E9413042A960FB6F894C7
:1008C000DEBF0FBECDBFCF91DF911F910F91089575
:1008D000EF92FF921F93182F81E060E040E00E94AA
:1008E0007F0290EDE92E97E0F92EC7010197F1F70D
:1008F00081E061E041E00E947F02C7010197F1F7CA
:1009000080E0612F0E94240312E0812F8A95F1F785
:1009100081E061E040E00E947F021A95F1F71F91AB
:10092000FF90EF90089581E00E946804089581305F
:1009300039F0813050F0823029F0833031F404C036
:10094000605C03C0605F01C0605B862F80680E94AE
:10095000680408950F931F938A010E949704C801A9
:100960000E9413041F910F91089581E060E041E01F
:100970000E940B0281E061E041E00E940B0280E0F6
:100980006FEF0E94110380E49CE90197F1F788E37F
:100990000E9468048CE00E94680481E00E94680460
:1009A0000895FC019FB53581832F83709C7F892B2F
:1009B0008FBD2EB5832F90E08C709070880F991F9B
:1009C000277E282B2EBD808191819DBD8CBD34302A
:1009D00029F4828193819BBD8ABD06C03A3021F4FF
:1009E0008281938199BD88BD8FB58C608FBD9EB586
:1009F00084818770987F892B8EBD332311F484E026
:100A000003C0343019F480E189BF08953A3011F4FD
:100A100088E089BF08951FBC1EBC1DBC1CBC1BBC4C
:100A20001ABC19BC18BC19BE08959093F8008093A5
:100A3000F70008951F920F920FB60F9211242F9373
:100A40003F934F935F936F937F938F939F93AF9356
:100A5000BF93EF93FF93E091F700F091F800309788
:100A600009F00995FF91EF91BF91AF919F918F91FF
:100A70007F916F915F914F913F912F910F900FBE9A
:100A80000F901F9018951F920F920FB60F9211247E
:100A90002F933F934F935F936F937F938F939F9386
:100AA000AF93BF93EF93FF93E091F700F091F800BD
:100AB000309709F00995FF91EF91BF91AF919F9108
:100AC0008F917F916F915F914F913F912F910F90F7
:100AD0000FBE0F901F9018951F920F920FB60F9296
:100AE00011242F933F934F935F936F937F938F9333
:100AF0009F93AF93BF93EF93FF93E091F700F09133
:100B0000F800309709F00995FF91EF91BF91AF91EF
:100B10009F918F917F916F915F914F913F912F9115
:100B20000F900FBE0F901F901895FC0182E08BB9BB
:100B300088E18AB980E880BD90B581818295807F07
:100B40009F7C892B80BD90B58281880F880F880F8C
:100B5000977F892B80BD90B58081880F997F892BE5
:100B600080BD238134814581568183E0220F331F6C
:100B7000441F551F8A95D1F760E072E18AE790E043
:100B80000E94F3052150304030BD29B908955D9B86
:100B9000FECF8CB908955F9BFECF8CB1089520E005
:100BA00004C05D9BFECFECB92F5FFC01E20FF11D8D
:100BB000E081EE23B1F70895DC015F9BFECF8CB19D
:100BC0008C9390E008C09F5F5F9BFECF8CB1FD01CE
:100BD000E90FF11D8083FD01E90FF11D8081833252
:100BE00091F710820895A1E21A2EAA1BBB1BFD01EA
:100BF0000DC0AA1FBB1FEE1FFF1FA217B307E407FC
:100C0000F50720F0A21BB30BE40BF50B661F771F53
:100C1000881F991F1A9469F7609570958095909533
:100C20009B01AC01BD01CF010895EF92FF920F939C
:100C30001F93F22FF02E47FD02C0E4E001C0E4E173
:100C4000242F332727FD309537FF03C0309521959A
:100C50003F4F4F2D512F0F2FEE2E0E9457068F2DF5
:100C6000912F1F910F91FF90EF900895FB019F012D
:100C7000E8944230C4F04532B4F44A3029F497FB8A
:100C80001EF4909581959F4F642F77270E94A108AD
:100C9000805D8A330CF0895D8193CB010097A1F7C9
:100CA00016F45DE251931082C9010C949108A9E0F9
:100CB000B0E0EDE5F6E00C94B9086A01122FA02E21
:100CC000BE2C2BE3201718F42CE3922E02C0902E9A
:100CD0009394AE014F5F5F4F27E0092D0E94B90743
:100CE000BC018981E82EFF24C701897090700197AB
:100CF00011F4ADE209C0B1FE02C0ABE205C0B0FC28
:100D000002C0A0E001C0A0E2E3FE3BC0AA2311F4B0
:100D100023E001C024E0211710F020E002C0121BE4
:100D2000212FEB2CB4FE02C0322F0AC0F601322F65
:100D300080E202C0819331503323E1F7C20ED11C0F
:100D4000AA2319F0F601A1936F01F6013196E2FE94
:100D500005C09EE4D6019C9381E404C09EE6D601C2
:100D60009C9381E611968C9391833296DF01832FB9
:100D700090E202C09D9381508823E1F7E30FF11DBB
:100D800040C0E2FE42C0AA2311F423E001C024E0E7
:100D9000211710F020E002C0121B212FEB2CB4FE13
:100DA00002C0922F0AC0F601922F80E202C0819306
:100DB00091509923E1F7C20ED11CAA2319F0F60134
:100DC000A1936F01F6013196E2FE08C089E4D601D5
:100DD0008C938EE411968C9386E407C089E6D60145
:100DE0008C938EE611968C9386E681833296DF0192
:100DF000892F20E202C02D9381508823E1F7E90F6B
:100E0000F11D10822EEF3FEFAFC0161617061CF033
:100E100041E050E003C0AB014F5F5F4FAA2019F4DF
:100E200080E090E003C08A2D90E0019620E030E061
:100E3000AA2311F021E030E0240F351F280F391FBD
:100E4000812F90E02817390714F020E002C0121B10
:100E5000212F4B2D50E0CA0180719070B4FC0DC061
:100E6000B3FC0BC0F601322F40E202C04193315077
:100E70003323E1F7C20ED11C01C0322FAA2319F08F
:100E8000F601A1936F01892B11F0132F0AC0F6010F
:100E9000132F80E302C0819311501123E1F7C30E99
:100EA000D11C092D060FBA8090E1892E912C8E203D
:100EB0009F20E4FE04C0F1E3BF1609F401501016B0
:100EC00014F001E003C0093008F008E09B0177FF4F
:100ED00002C020E030E0CB010196821B930BFE01A3
:100EE0003196E80FF91F8EE2F82E3B01601A710867
:100EF0008A2D90E044275527481B590B8FEF2F3F31
:100F0000380719F4D601FD926D01621773072CF0B2
:100F10006216730614F4808101C080E321503040D2
:100F200031962417350724F0D6018D936D01E6CF55
:100F30002617370749F4B5E3BB1528F0BB1621F493
:100F40008114910409F481E3F6018193D601812F84
:100F500090E202C09C93815011968823D9F7E10F4B
:100F6000F11D108220E030E0C9012996EEE00C94DA
:100F7000D508283008F027E03327DA01990F311D12
:100F800087FD916000966105710539F432602E5F2E
:100F90003D9330E32A95E1F708959F3F30F0803884
:100FA0007105610509F03C5F3C5F3D93913008F0AD
:100FB0008068911DDF93CF931F930F93FF92EF9261
:100FC000192F987F9695E92F96959695E90FFF270B
:100FD000E255FF4F99273327EE24FF24A701E701AD
:100FE00005900894079428F4360FE71EF81E491F51
:100FF000511D660F771F881F991F0694A1F7059052
:10100000079428F4E70EF81E491F561FC11D770FDD
:10101000881F991F661F0694A1F70590079428F46E
:10102000F80E491F561FC71FD11D880F991F661F35
:10103000771F0694A1F70590079420F4490F561FD7
:10104000C71FD81F990F661F771F881F0694A9F71F
:1010500084911095177041F0D695C795579547958F
:10106000F794E7941A95C1F7E4E5F0E068941590D9
:10107000159135916591959105907FE27395E118F1
:10108000F10A430B560BC90BD009C0F7E10CF11E56
:10109000431F561FC91FD01D7EF4703311F48A956B
:1010A000E6CFE894015030F0080F0AF40027021749
:1010B00008F4202F2395022F7A3328F079E37D93CB
:1010C0002A95E9F710C07D932A9589F6069497959D
:1010D0006795379517951794E118F10A430B560B4E
:1010E000C90BD00998F023957E9173957A3308F057
:1010F00070E37C932013B8F77E9170617D9330F09C
:10110000839571E37D9370E32A95E1F71124EF90C5
:10111000FF900F911F91CF91DF91992787FD9095B7
:101120000895DC01FC01672F71917723E1F7329775
:1011300004C07C916D9370836291AE17BF07C8F3B2
:101140000895AA1BBB1B51E107C0AA1FBB1FA6170E
:10115000B70710F0A61BB70B881F991F5A95A9F760
:1011600080959095BC01CD0108952F923F924F92AA
:101170005F926F927F928F929F92AF92BF92CF9227
:10118000DF92EF92FF920F931F93CF93DF93CDB730
:10119000DEB7CA1BDB0B0FB6F894DEBF0FBECDBFA8
:1011A00009942A88398848885F846E847D848C8479
:1011B0009B84AA84B984C884DF80EE80FD800C8182
:1011C0001B81AA81B981CE0FD11D0FB6F894DEBF65
:0C11D0000FBECDBFED010895F894FFCFD5
:1011DC00506C7A20656E74657220506173733A207E
:1011EC00002B203A204F70656E20446F6F72002DDB
:1011FC00203A204368616E6765205061737300501C
:10120C006C7A20656E74657220706173733A20205D
:10121C0000506C7A2072652D656E7465722074684E
:10122C00650073616D6520706173733A20007061A5
:10123C007373206D61746368007061737320646FE5
:10124C006E2774206D617463680070617373206520
:0C125C0078697374000300008025000016
:00000001FF
