:100000000C94A7000C94C4000C94C4000C94C4007D
:100010000C94C4000C94C4000C94C4000C94660BA3
:100020000C948F0B0C943D0B0C94C4000C94C400E6
:100030000C94C4000C94C4000C94C4000C94C40030
:100040000C94C4000C94C4000C94C4000C94C40020
:100050000C94C40000407A10F35A00A0724E1809A4
:100060000010A5D4E80000E87648170000E40B541F
:10007000020000CA9A3B000000E1F50500008096EE
:100080009800000040420F000000A0860100000020
:10009000102700000000E8030000000064000000DA
:1000A00000000A00000000000100000000002C76A3
:1000B000D888DC674F0823DFC1DFAE59E1B1B796BE
:1000C000E5E3E453C63AE651997696E8E6C284261B
:1000D000EB898C9B62ED407C6FFCEFBC9C9F40F2F7
:1000E000BAA56FA5F490055A2AF75C936B6CF96773
:1000F0006DC11BFCE0E40D47FEF520E6B500D0ED38
:10010000902E0300943577050080841E080000209F
:100110004E0A000000C80C333333330F986E12833D
:100120001141EF8D2114893BE65516CFFEE6DB1811
:10013000D1844B381BF77C1D901DA4BBE4242032D6
:1001400084725E228100C9F124ECA1E53D271124CF
:100150001FBECFE5D8E0DEBFCDBF11E0A0E6B0E026
:10016000E2EAFEE102C005900D92AE37B107D9F781
:1001700011E0AEE7B1E001C01D92AA38B107E1F786
:100180000E94AD070C944F0F0C940000EF92FF9269
:100190000F931F937B018C0120E030E040E05FE48F
:1001A0000E94420488238CF0C801B70120E030E0AF
:1001B00040E05FE40E943E020E9472049B01AC0199
:1001C000205030404040504806C0C801B7010E944E
:1001D00072049B01AC01B901CA011F910F91FF90FC
:1001E000EF900895A0E0B0E0E8EFF0E00C94780C18
:1001F000DC012B01FA019C91923008F439C1EB012A
:100200008881823008F433C1943069F4843009F075
:100210002FC111969C9111978981981709F428C1D3
:10022000A0E6B0E025C1843009F421C18230A9F4F0
:10023000923009F01DC19A01AD0188E0EA010990F0
:10024000AE01E90109929E018150C1F7E201898165
:1002500011969C918923818308C1923009F407C1CA
:1002600012962D903C901397EB018A819B811496F6
:10027000AD90BD90CD90DC901797EC80FD800E8105
:100280001F819101281B390BB90137FF04C0662774
:100290007727621B730B603271050CF061C0121678
:1002A00013066CF537014801062E04C09694879416
:1002B000779467940A94D2F721E030E040E050E070
:1002C00004C0220F331F441F551F6A95D2F72150D7
:1002D0003040404050402E213F21402351232115E2
:1002E00031054105510521F021E030E040E050E0CA
:1002F00079018A01E628F728082919293CC0232B0F
:10030000D1F1260E371E35014601062E04C0969403
:100310008794779467940A94D2F721E030E040E024
:1003200050E004C0220F331F441F551F6A95D2F7B7
:1003300021503040404050402A213B214C215D213A
:10034000211531054105510521F021E030E040E063
:1003500050E059016A01A628B728C828D9280BC03F
:10036000821593052CF01C01AA24BB24650103C04F
:10037000EE24FF24870111969C91D20111968C9155
:10038000981709F445C0992339F0A80197012A1953
:100390003B094C095D0906C0A60195012E193F09CC
:1003A000400B510B57FD08C01182338222822483F7
:1003B0003583468357831DC081E081833382228247
:1003C00088279927DC01821B930BA40BB50B848330
:1003D0009583A683B7830DC0220F331F441F551F7B
:1003E0002483358346835783828193810197938346
:1003F00082832481358146815781DA01C9010197C1
:10040000A109B1098F5F9F4FAF4FBF4328F30BC0C6
:10041000918333822282EA0CFB1C0C1D1D1DE48299
:10042000F5820683178383E08083248135814681AA
:10043000578157FF1AC0C901AA2797FDA095BA2F67
:1004400081709070A070B07056954795379527953C
:10045000822B932BA42BB52B84839583A683B78300
:1004600082819381019693838283DF0101C0D2014F
:10047000CD01CDB7DEB7E2E10C94940CA0E2B0E080
:10048000E4E4F2E00C94840C69837A838B839C838C
:100490002D833E834F835887E9E0EE2EF12CEC0E3E
:1004A000FD1ECE010196B7010E9463068E010F5E0C
:1004B0001F4FCE010596B8010E9463068A8991E01C
:1004C00089278A8BC701B801AE01475E5F4F0E9442
:1004D000F2000E948E05A096E6E00C94A00CA0E22B
:1004E000B0E0E5E7F2E00C94840C69837A838B83B7
:1004F0009C832D833E834F835887F9E0EF2EF12CA8
:10050000EC0EFD1ECE010196B7010E9463068E011E
:100510000F5E1F4FCE010596B8010E946306C7010A
:10052000B801AE01475E5F4F0E94F2000E948E0547
:10053000A096E6E00C94A00CA0E2B0E0E2EAF2E0C3
:100540000C94780C69837A838B839C832D833E8300
:100550004F835887CE010196BE01675F7F4F0E948F
:100560006306CE010596BE016F5E7F4F0E94630653
:100570009985923088F089898230C8F0943019F4D6
:10058000823051F404C0843029F4923081F480E642
:1005900090E0C6C0923049F420E09A858A89981389
:1005A00021E02A87CE010996BBC0823049F420E0C1
:1005B0009A858A89981321E02A8BCE014196B0C092
:1005C0002D843E844F8458886D887E888F88988CCF
:1005D000EE24FF248701AA24BB24650140E050E0FB
:1005E00060E070E0E0E0F0E0C10181709070892B84
:1005F000E9F0E60CF71C081D191D9A01AB012A0D44
:100600003B1D4C1D5D1D80E090E0A0E0B0E0E614D5
:10061000F7040805190520F481E090E0A0E0B0E0BF
:10062000BA01A901480F591F6A1F7B1FAA0CBB1CE6
:10063000CC1CDD1C97FE08C081E090E0A0E0B0E09B
:10064000A82AB92ACA2ADB2A3196E032F10549F0F4
:10065000660C771C881C991C5694479437942794F1
:10066000C3CFFA85EA892B893C898B859C85280F25
:10067000391F2E5F3F4F17C0CA0181709070892BC0
:1006800061F016950795F794E79480E090E0A0E07C
:10069000B0E8E82AF92A0A2B1B2B7695679557951F
:1006A00047952F5F3F4F77FDE7CF0CC0440F551F95
:1006B000661F771F17FD4160EE0CFF1C001F111F06
:1006C00021503040403090E0590790E0690790E4B5
:1006D000790760F32B8F3C8FDB01CA018F77907015
:1006E000A070B07080349105A105B10561F447FD9B
:1006F0000AC0E114F1040105110529F0405C5F4FC7
:100700006F4F7F4F40781A8EFE1711F081E08A8F6D
:100710004D8F5E8F6F8F78A383E0898FCE014996CE
:100720000E948E05A096E2E10C94940CA8E1B0E042
:10073000ECE9F3E00C94800C69837A838B839C83CF
:100740002D833E834F835887B9E0EB2EF12CEC0EBE
:10075000FD1ECE010196B7010E9463068E010F5E59
:100760001F4FCE010596B8010E94630629852230ED
:1007700008F47EC03989323010F4B8017CC08A8513
:100780009A8989278A87243011F0223031F423177F
:1007900009F06EC060E670E06EC0343039F41D863A
:1007A0001E861F86188A1C861B8604C0323021F4E0
:1007B00084E08987B7015FC02B853C858B899C8944
:1007C000281B390B3C872B87ED84FE840F85188905
:1007D000AD88BE88CF88D88CEA14FB040C051D05B3
:1007E00040F4EE0CFF1C001F111F215030403C87CD
:1007F0002B8720E030E040E050E080E090E0A0E097
:10080000B0E460E070E0EA14FB040C051D0540F064
:10081000282B392B4A2B5B2BEA18FB080C091D09E6
:10082000B695A79597958795EE0CFF1C001F111F95
:100830006F5F7F4F6F31710531F7DA01C9018F7733
:100840009070A070B07080349105A105B10561F47D
:1008500027FD0AC0E114F1040105110529F0205C0F
:100860003F4F4F4F5F4F20782D873E874F87588BE4
:10087000BE01675F7F4FCB010E948E056896EAE05C
:100880000C949C0CA8E1B0E0E8E4F4E00C94840C37
:1008900069837A838B839C832D833E834F83588720
:1008A00089E0E82EF12CEC0EFD1ECE010196B70179
:1008B0000E9463068E010F5E1F4FCE010596B801A0
:1008C0000E9463068985823040F08989823028F051
:1008D000C701B8010E94DB0601C08FEF6896E6E011
:1008E0000C94A00CACE0B0E0E8E7F4E00C94880CC9
:1008F00069837A838B839C83CE010196BE016B5FF3
:100900007F4F0E9463068D81823061F1823050F109
:10091000843021F48E81882351F12EC02F813885B7
:1009200037FD20C06E812F3131051CF06623F9F0B0
:1009300023C08EE190E0821B930B29853A854B857D
:100940005C8504C056954795379527958A95D2F7CB
:100950006623B1F050954095309521953F4F4F4F0C
:100960005F4F0EC020E030E040E050E009C02FEFC4
:100970003FEF4FEF5FE704C020E030E040E050E899
:10098000B901CA012C96E2E00C94A40CA8E0B0E0F6
:10099000ECECF4E00C94800C7B018C01611571058A
:1009A0008105910519F482E0898360C083E0898321
:1009B0008EE1C82ED12CDC82CB82ED82FE820F83A9
:1009C0001887C801B7010E943F05FC013197F7FF66
:1009D0003BC0222733272E1B3F0B57016801022EF5
:1009E00004C0D694C794B794A7940A94D2F740E071
:1009F00050E060E070E081E090E0A0E0B0E004C092
:100A0000880F991FAA1FBB1F2A95D2F70197A1092A
:100A1000B1098E219F21A023B1230097A105B10523
:100A200021F041E050E060E070E04A295B296C2948
:100A30007D294D835E836F8378878EE190E08E1BE6
:100A40009F0B9C838B8312C0309781F00E2E04C0C5
:100A5000EE0CFF1C001F111F0A94D2F7ED82FE82DC
:100A60000F831887CE1ADF0ADC82CB821A82CE016E
:100A700001960E948E052896EAE00C949C0CEF9259
:100A8000FF920F931F937B018C0180E0E81680E0BA
:100A9000F80681E0080780E0180788F48FEFE81671
:100AA000F1040105110531F028F088E090E0A0E0A4
:100AB000B0E017C080E090E0A0E0B0E012C080E0BD
:100AC000E81680E0F80680E0080781E0180728F0C3
:100AD00088E190E0A0E0B0E004C080E190E0A0E018
:100AE000B0E020E230E040E050E0281B390B4A0B38
:100AF0005B0B04C016950795F794E7948A95D2F797
:100B0000F701E859FF4F8081281B3109410951093C
:100B1000C9011F910F91FF90EF900895DF92EF921E
:100B2000FF920F931F93FC01E480F58006811781EB
:100B3000D1808081823048F480E090E0A0E1B0E094
:100B4000E82AF92A0A2B1B2BA5C0843009F49FC080
:100B5000823021F4EE24FF24870105C0E114F10462
:100B60000105110519F4E0E0F0E096C0628173819F
:100B70009FEF623879070CF05BC022E83FEF261B3D
:100B8000370B2A3131052CF020E030E040E050E016
:100B90002AC0B801A701022E04C076956795579523
:100BA00047950A94D2F781E090E0A0E0B0E004C05D
:100BB000880F991FAA1FBB1F2A95D2F70197A10979
:100BC000B1098E219F21A023B1230097A105B10572
:100BD00021F081E090E0A0E0B0E09A01AB01282B89
:100BE000392B4A2B5B2BDA01C9018F779070A070EB
:100BF000B07080349105A105B10539F427FF09C013
:100C0000205C3F4F4F4F5F4F04C0215C3F4F4F4F21
:100C10005F4FE0E0F0E02030A0E03A07A0E04A07B4
:100C2000A0E45A0710F0E1E0F0E079018A0127C062
:100C30006038710564F5FB01E158FF4FD801C70129
:100C40008F779070A070B07080349105A105B105C8
:100C500039F4E7FE0DC080E490E0A0E0B0E004C00D
:100C60008FE390E0A0E0B0E0E80EF91E0A1F1B1F22
:100C700017FF05C016950795F794E794319687E01E
:100C800016950795F794E7948A95D1F705C0EE2459
:100C9000FF248701EFEFF0E06E2F679566276795D9
:100CA000902F9F77D794DD24D7948E2F8695492F48
:100CB000462B582F5D29B701CA011F910F91FF9054
:100CC000EF90DF900895FC01DB014081518122818A
:100CD000622F6F7770E0221F2227221F9381892FB6
:100CE000880F822B282F30E0991F9927991F119682
:100CF0009C93119721153105A9F541155105610501
:100D0000710511F482E037C082E89FEF13969C933F
:100D10008E9312979A01AB0167E0220F331F441F95
:100D2000551F6A95D1F783E08C930DC0220F331FB6
:100D3000441F551F12968D919C91139701971396FE
:100D40009C938E931297203080E0380780E048070C
:100D500080E4580758F314962D933D934D935C937C
:100D6000179708952F3F310579F441155105610515
:100D7000710519F484E08C93089564FF03C081E049
:100D80008C9312C01C9210C02F57304013963C9386
:100D90002E93129783E08C9387E0440F551F661FB4
:100DA000771F8A95D1F7706414964D935D936D9378
:100DB0007C93179708951F93DC01FB019C9192305F
:100DC00008F447C08081823008F443C0943051F465
:100DD00011961C91843099F58181682F70E0611B18
:100DE00071093FC0843021F0923031F48230B9F182
:100DF0008181882389F12DC011961C911197823031
:100E0000F1F081811817D9F412962D913C91139726
:100E1000828193818217930794F028173907BCF0D9
:100E200014968D919D910D90BC91A02D24813581BA
:100E300046815781281739074A075B0718F41123A1
:100E400041F00AC082179307A407B50740F41123A5
:100E500019F061E070E005C06FEF7FEF02C060E065
:100E600070E0CB011F9108958FE00E942A0C20E0D2
:100E700030E0F901E258FE4FD901AD57BE4F9081E5
:100E80008C91981731F42F5F3F4F2530310589F74A
:100E900005C080E00E942A0C80E0089582E20E9452
:100EA0002A0C82E20895CF93DF93CEE7D1E00E942F
:100EB0002E0C899381E0C338D807C9F7C3E8D1E085
:100EC0000E942E0C899381E0C838D807C9F7DF91BA
:100ED000CF910895EF92FF920F931F93CF93DF93DB
:100EE000C8E6D1E00EE711E088ECE82EF12C88810D
:100EF0009981F80160810E94460888EE93E0F7012D
:100F00003197F1F70197D9F722960F5F1F4FF1E064
:100F1000C237DF0761F780E090E068EF0E94460883
:100F2000DF91CF911F910F91FF90EF900895DF9384
:100F3000CF930F92CDB7DEB780E090E0BE016F5F38
:100F40007F4F0E9401088981883F11F080E001C035
:100F500088EF0F90CF91DF910895DF93CF93CDB7B6
:100F6000DEB72C970FB6F894DEBF0FBECDBFDE0103
:100F70001696E7E7F1E087E001900D928150E1F7E6
:100F8000DE011196E2E7F1E085E001900D928150DB
:100F9000E1F70E94B60ACE0106960E94F80BCE0138
:100FA00001960E94B80B8FE00E942A0C0E942E0C22
:100FB000883F29F40E9497070E942A0CF4CF8131C0
:100FC00091F70E9453070E943407823261F70E9412
:100FD0006A07E9CF83E067E040E00E94EB080895EC
:100FE00083E067E041E00E94EB08089583E067E05A
:100FF00041E00E94770883E067E040E00E94EB0850
:101000000895EF92FF921F93CF93DF93EC017B0142
:101010000E94D70B0E94F50B883089F5CE01880F0E
:10102000892F881F990B9195182F1E70812F806A28
:101030000E94E00B0E94F50B883109F58C2F0E946D
:10104000E00B0E94F50B8832D1F40E94D70B0E946E
:10105000F50B8031A1F4812F816A0E94E00B0E9480
:10106000F50B803461F40E94EE0BF70180830E943F
:10107000F50B883521F40E94DD0B81E001C080E092
:10108000DF91CF911F91FF90EF9008951F93CF9321
:10109000DF93EC01162F0E94D70B0E94F50B8830CE
:1010A00009F5CE0180709770880F892F881F990BE2
:1010B0009195806A0E94E00B0E94F50B883191F4B3
:1010C0008C2F0E94E00B0E94F50B883259F4812F7F
:1010D0000E94E00B0E94F50B883221F40E94DD0B88
:1010E00081E001C080E0DF91CF911F9108956830C9
:1010F00008F070C0843008F06DC0813009F1813093
:1011000030F08230B1F1833009F064C04BC041301F
:1011100059F42AB381E090E002C0880F991F6A95C4
:10112000E2F7282B2ABB08952AB381E090E002C0A1
:10113000880F991F6A95E2F7809582238ABB0895EC
:10114000413059F427B381E090E002C0880F991F25
:101150006A95E2F7282B27BB089527B381E090E03A
:1011600002C0880F991F6A95E2F78095822387BB9A
:101170000895413059F424B381E090E002C0880F13
:10118000991F6A95E2F7282B24BB089524B381E0C8
:1011900090E002C0880F991F6A95E2F7809582233C
:1011A00084BB0895413059F421B381E090E002C03E
:1011B000880F991F6A95E2F7282B21BB089521B368
:1011C00081E090E002C0880F991F6A95E2F7809550
:1011D000822381BB0895683008F070C0843008F025
:1011E0006DC0813009F1813030F08230B1F183304F
:1011F00009F064C04BC0413059F42BB381E090E05A
:1012000002C0880F991F6A95E2F7282B2BBB08951F
:101210002BB381E090E002C0880F991F6A95E2F736
:10122000809582238BBB0895413059F428B381E027
:1012300090E002C0880F991F6A95E2F7282B28BB1F
:10124000089528B381E090E002C0880F991F6A9545
:10125000E2F78095822388BB0895413059F425B385
:1012600081E090E002C0880F991F6A95E2F7282B71
:1012700025BB089525B381E090E002C0880F991F37
:101280006A95E2F78095822385BB0895413059F431
:1012900022B381E090E002C0880F991F6A95E2F7BF
:1012A000282B22BB089522B381E090E002C0880F72
:1012B000991F6A95E2F78095822382BB0895683072
:1012C000D0F48430C0F4813049F0813028F082308D
:1012D00039F0833081F406C089B305C086B303C0FA
:1012E00083B301C080B390E002C0959587956A955D
:1012F000E2F78170089580E00895843080F48130B1
:1013000049F0813028F0823039F0833041F406C052
:101310006ABB089567BB089564BB089561BB0895D7
:10132000843080F4813049F0813028F0823039F007
:10133000833041F406C06BBB089568BB089565BB5C
:10134000089562BB0895843088F4813049F081307B
:1013500028F0823039F0833049F406C089B308950B
:1013600086B3089583B3089580B3089580E0089507
:10137000FF920F931F93082FF62E482F417081E0A4
:1013800060E00E94EB0810E0027010701595079560
:1013900081E061E0402F0E94EB088F2D0E94D20A6D
:1013A0001F910F91FF90089581E060E041E00E945D
:1013B000770881E061E041E00E94770881E060E029
:1013C00040E00E94EB0881E061E040E00E94EB0811
:1013D0000895EF92FF921F93182F81E060E041E0A3
:1013E0000E94EB0880EDE82E87E0F82EC7010197F8
:1013F000F1F781E061E041E00E94EB08C70101974D
:10140000F1F780E0612F0E94900912E0812F8A9508
:10141000F1F781E061E040E00E94EB081A95F1F7F6
:101420001F91FF90EF900895CF93DF93EC0102C0DE
:101430000E94E90989918823D9F7DF91CF91089516
:10144000EF92FF920F931F93DF93CF93CDB7DEB749
:1014500064970FB6F894DEBF0FBECDBF45E023E022
:101460007E010894E11CF11C87010E94AF0CC701AA
:101470000E94140A64960FB6F894DEBF0FBECDBF6B
:10148000CF91DF911F910F91FF90EF9008950F93EF
:101490001F93DF93CF93CDB7DEB72A970FB6F8949B
:1014A000DEBF0FBECDBF8E010F5F1F4FB8014AE0F8
:1014B00050E00E94D00CC8010E94140A2A960FB670
:1014C000F894DEBF0FBECDBFCF91DF911F910F917A
:1014D0000895EF92FF921F93182F81E060E040E0A3
:1014E0000E94EB0890EDE92E97E0F92EC7010197D5
:1014F000F1F781E061E041E00E94EB08C70101974C
:10150000F1F780E0612F0E94900912E0812F8A9507
:10151000F1F781E061E040E00E94EB081A95F1F7F5
:101520001F91FF90EF90089581E00E94690A08954D
:10153000813039F0813050F0823029F0833031F43D
:1015400004C0605C03C0605F01C0605B862F806880
:101550000E94690A08950F931F938A010E94980AB6
:10156000C8010E94140A1F910F91089581E060E064
:1015700041E00E94770881E061E041E00E94770845
:1015800080E06FEF0E947D0980E49CE90197F1F70C
:1015900088E30E94690A8CE00E94690A81E00E9447
:1015A000690A089598E693BF12BE90E0A0E0B0E00B
:1015B000BC01CD010E94C60420E030E048EC52E4BA
:1015C0000E94960320E030E04FE753E40E949C0223
:1015D0000E94C6006CBF83B7826083BF81E063E076
:1015E00041E00E9477080895FC019FB53581832F63
:1015F00083709C7F892B8FBD2EB5832F90E08C70DC
:101600009070880F991F277E282B2EBD8081918195
:101610009DBD8CBD343029F4828193819BBD8ABDF0
:1016200006C03A3021F48281938199BD88BD8FB57F
:101630008C608FBD9EB584818770987F892B8EBD0D
:10164000332311F484E003C0343019F480E189BFFE
:1016500008953A3011F488E089BF08951FBC1EBC7C
:101660001DBC1CBC1BBC1ABC19BC18BC19BE0895FF
:10167000909389018093880108951F920F920FB66D
:101680000F9211242F933F934F935F936F937F9308
:101690008F939F93AF93BF93EF93FF93E091880154
:1016A000F0918901309709F00995FF91EF91BF9171
:1016B000AF919F918F917F916F915F914F913F91EA
:1016C0002F910F900FBE0F901F9018951F920F92A1
:1016D0000FB60F9211242F933F934F935F936F9305
:1016E0007F938F939F93AF93BF93EF93FF93E0917B
:1016F0008801F0918901309709F00995FF91EF91E8
:10170000BF91AF919F918F917F916F915F914F9119
:101710003F912F910F900FBE0F901F9018951F9221
:101720000F920FB60F9211242F933F934F935F9315
:101730006F937F938F939F93AF93BF93EF93FF9399
:10174000E0918801F0918901309709F00995FF91A6
:10175000EF91BF91AF919F918F917F916F915F9129
:101760004F913F912F910F900FBE0F901F901895A2
:10177000CF93DF93EC0129813A814B815C8160E05A
:1017800072E18AE790E00E94560C2051304037FF0A
:1017900002C020E33FE13595279520B911B8888133
:1017A000880F82B984E086BFDF91CF91089584EAE3
:1017B00086BF06B607FEFDCF089584E986BF08956B
:1017C00083B984E886BF06B607FEFDCF089584EC92
:1017D00086BF06B607FEFDCF83B1089584E886BFB5
:1017E00006B607FEFDCF83B1089581B1887F0895C5
:1017F000FC0182E08BB988E18AB980E880BD90B5B0
:1018000081818295807F9F7C892B80BD90B582816C
:10181000880F880F880F977F892B80BD90B58081B6
:10182000880F997F892B80BD238134814581568122
:1018300083E0220F331F441F551F8A95D1F760E0C4
:1018400072E18AE790E00E94560C2150304030BD92
:1018500029B908955D9BFECF8CB908955F9BFECF9B
:101860008CB1089520E004C05D9BFECFECB92F5FE2
:10187000FC01E20FF11DE081EE23B1F70895DC01D8
:101880005F9BFECF8CB18C9390E008C09F5F5F9B05
:10189000FECF8CB1FD01E90FF11D8083FD01E90F41
:1018A000F11D8081833291F710820895A1E21A2EF2
:1018B000AA1BBB1BFD010DC0AA1FBB1FEE1FFF1FF4
:1018C000A217B307E407F50720F0A21BB30BE40B44
:1018D000F50B661F771F881F991F1A9469F760958B
:1018E0007095809590959B01AC01BD01CF01089545
:1018F0002F923F924F925F926F927F928F929F9220
:10190000AF92BF92CF92DF92EF92FF920F931F930D
:10191000CF93DF93CDB7DEB7CA1BDB0B0FB6F894BE
:10192000DEBF0FBECDBF09942A88398848885F84FE
:101930006E847D848C849B84AA84B984C884DF806F
:10194000EE80FD800C811B81AA81B981CE0FD11D53
:101950000FB6F894DEBF0FBECDBFED010895EF9234
:10196000FF920F931F93F22FF02E47FD02C0E4E089
:1019700001C0E4E1242F332727FD309537FF03C052
:10198000309521953F4F4F2D512F0F2FEE2E0E9456
:10199000F10C8F2D912F1F910F91FF90EF900895D3
:1019A000FB019F01E8944230C4F04532B4F44A3060
:1019B00029F497FB1EF4909581959F4F642F77270C
:1019C0000E943B0F805D8A330CF0895D8193CB01CF
:1019D0000097A1F716F45DE251931082C9010C94AF
:1019E0002B0FA9E0B0E0E7EFFCE00C947C0C6A015F
:1019F000122FA02EBE2C2BE3201718F42CE3922ECE
:101A000002C0902E9394AE014F5F5F4F27E0092DE7
:101A10000E94530EBC018981E82EFF24C701897002
:101A20009070019711F4ADE209C0B1FE02C0ABE2C3
:101A300005C0B0FC02C0A0E001C0A0E2E3FE3BC0D4
:101A4000AA2311F423E001C024E0211710F020E0C4
:101A500002C0121B212FEB2CB4FE02C0322F0AC091
:101A6000F601322F80E202C0819331503323E1F737
:101A7000C20ED11CAA2319F0F601A1936F01F60141
:101A80003196E2FE05C09EE4D6019C9381E404C039
:101A90009EE6D6019C9381E611968C9391833296B3
:101AA000DF01832F90E202C09D9381508823E1F7EC
:101AB000E30FF11D40C0E2FE42C0AA2311F423E06F
:101AC00001C024E0211710F020E002C0121B212FDA
:101AD000EB2CB4FE02C0922F0AC0F601922F80E2D6
:101AE00002C0819391509923E1F7C20ED11CAA2321
:101AF00019F0F601A1936F01F6013196E2FE08C0DC
:101B000089E4D6018C938EE411968C9386E407C009
:101B100089E6D6018C938EE611968C9386E68183B6
:101B20003296DF01892F20E202C02D938150882355
:101B3000E1F7E90FF11D10822EEF3FEFAFC016164F
:101B400017061CF041E050E003C0AB014F5F5F4F50
:101B5000AA2019F480E090E003C08A2D90E001965D
:101B600020E030E0AA2311F021E030E0240F351FFF
:101B7000280F391F812F90E02817390714F020E033
:101B800002C0121B212F4B2D50E0CA0180719070B2
:101B9000B4FC0DC0B3FC0BC0F601322F40E202C012
:101BA000419331503323E1F7C20ED11C01C0322FD3
:101BB000AA2319F0F601A1936F01892B11F0132FBD
:101BC0000AC0F601132F80E302C081931150112344
:101BD000E1F7C30ED11C092D060FBA8090E1892EC2
:101BE000912C8E209F20E4FE04C0F1E3BF1609F47F
:101BF0000150101614F001E003C0093008F008E0AD
:101C00009B0177FF02C020E030E0CB010196821BF0
:101C1000930BFE013196E80FF91F8EE2F82E3B017F
:101C2000601A71088A2D90E044275527481B590BEC
:101C30008FEF2F3F380719F4D601FD926D0162171F
:101C400073072CF06216730614F4808101C080E3E0
:101C50002150304031962417350724F0D6018D935A
:101C60006D01E6CF2617370749F4B5E3BB1528F019
:101C7000BB1621F48114910409F481E3F6018193E8
:101C8000D601812F90E202C09C9381501196882347
:101C9000D9F7E10FF11D108220E030E0C90129964B
:101CA000EEE00C94980C283008F027E03327DA0196
:101CB000990F311D87FD916000966105710539F41A
:101CC00032602E5F3D9330E32A95E1F708959F3F00
:101CD00030F080387105610509F03C5F3C5F3D9351
:101CE000913008F08068911DDF93CF931F930F937D
:101CF000FF92EF92192F987F9695E92F96959695DA
:101D0000E90FFF27E255FF4F99273327EE24FF24E1
:101D1000A701E70105900894079428F4360FE71E01
:101D2000F81E491F511D660F771F881F991F0694C3
:101D3000A1F70590079428F4E70EF81E491F561FD7
:101D4000C11D770F881F991F661F0694A1F7059084
:101D5000079428F4F80E491F561FC71FD11D880F7E
:101D6000991F661F771F0694A1F70590079420F42A
:101D7000490F561FC71FD81F990F661F771F881F4F
:101D80000694A9F784911095177041F0D695C795E0
:101D900057954795F794E7941A95C1F7E4E5F0E075
:101DA00068941590159135916591959105907FE214
:101DB0007395E118F10A430B560BC90BD009C0F714
:101DC000E10CF11E431F561FC91FD01D7EF4703356
:101DD00011F48A95E6CFE894015030F0080F0AF428
:101DE0000027021708F4202F2395022F7A3328F0BA
:101DF00079E37D932A95E9F710C07D932A9589F6BA
:101E0000069497956795379517951794E118F10AF9
:101E1000430B560BC90BD00998F023957E9173950F
:101E20007A3308F070E37C932013B8F77E917061E9
:101E30007D9330F0839571E37D9370E32A95E1F70C
:101E40001124EF90FF900F911F91CF91DF9199276F
:101E500087FD90950895DC01FC01672F7191772330
:101E6000E1F7329704C07C916D9370836291AE1755
:101E7000BF07C8F30895AA1BBB1B51E107C0AA1FE7
:101E8000BB1FA617B70710F0A61BB70B881F991F1B
:101E90005A95A9F780959095BC01CD010895F894C5
:021EA000FFCF72
:101EA200000000000000000000010202030303031F
:101EB20004040404040404040505050505050505D8
:101EC20005050505050505050606060606060606B8
:101ED20006060606060606060606060606060606A0
:101EE2000606060606060606070707070707070788
:101EF2000707070707070707070707070707070770
:101F0200070707070707070707070707070707075F
:101F1200070707070707070707070707070707074F
:101F22000707070707070707080808080808080837
:101F3200080808080808080808080808080808081F
:101F4200080808080808080808080808080808080F
:101F520008080808080808080808080808080808FF
:101F620008080808080808080808080808080808EF
:101F720008080808080808080808080808080808DF
:101F820008080808080808080808080808080808CF
:101F920008080808080808080808080808080808BF
:101FA200080808080808080885002004D107070067
:0E1FB20030020AE80300000300008025000052
:00000001FF
